{
    "_format": "hh-sol-artifact-1",
    "contractName": "place",
    "sourceName": "contracts/Lock.sol",
    "abi": [
        {
            "inputs": [
                {
                    "internalType": "address",
                    "name": "from_",
                    "type": "address"
                }
            ],
            "stateMutability": "nonpayable",
            "type": "constructor"
        },
        {
            "inputs": [],
            "name": "getLastOwnerIndex",
            "outputs": [
                {
                    "internalType": "uint256",
                    "name": "",
                    "type": "uint256"
                }
            ],
            "stateMutability": "view",
            "type": "function"
        },
        {
            "inputs": [],
            "name": "getOwnerAddress",
            "outputs": [
                {
                    "internalType": "address",
                    "name": "",
                    "type": "address"
                }
            ],
            "stateMutability": "view",
            "type": "function"
        },
        {
            "inputs": [],
            "name": "getOwnerHistory",
            "outputs": [
                {
                    "internalType": "address[]",
                    "name": "",
                    "type": "address[]"
                }
            ],
            "stateMutability": "view",
            "type": "function"
        },
        {
            "inputs": [
                {
                    "internalType": "uint256",
                    "name": "",
                    "type": "uint256"
                }
            ],
            "name": "historyOwnership",
            "outputs": [
                {
                    "internalType": "address",
                    "name": "",
                    "type": "address"
                }
            ],
            "stateMutability": "view",
            "type": "function"
        },
        {
            "inputs": [],
            "name": "owner",
            "outputs": [
                {
                    "internalType": "address payable",
                    "name": "",
                    "type": "address"
                }
            ],
            "stateMutability": "view",
            "type": "function"
        },
        {
            "inputs": [],
            "name": "ownershipCounter",
            "outputs": [
                {
                    "internalType": "uint256",
                    "name": "",
                    "type": "uint256"
                }
            ],
            "stateMutability": "view",
            "type": "function"
        },
        {
            "inputs": [
                {
                    "internalType": "uint256",
                    "name": "value_val",
                    "type": "uint256"
                }
            ],
            "name": "setValue",
            "outputs": [],
            "stateMutability": "nonpayable",
            "type": "function"
        },
        {
            "inputs": [],
            "name": "transaction",
            "outputs": [],
            "stateMutability": "payable",
            "type": "function"
        },
        {
            "inputs": [],
            "name": "value",
            "outputs": [
                {
                    "internalType": "uint256",
                    "name": "",
                    "type": "uint256"
                }
            ],
            "stateMutability": "view",
            "type": "function"
        }
    ],
    "bytecode": "0x60806040523480156200001157600080fd5b5060405162000cd138038062000cd1833981810160405281019062000037919062000195565b600180146200004b576200004a620001c7565b5b600060038190555080600160006101000a81548173ffffffffffffffffffffffffffffffffffffffff021916908373ffffffffffffffffffffffffffffffffffffffff160217905550600160009054906101000a900473ffffffffffffffffffffffffffffffffffffffff1660026000600354815260200190815260200160002060006101000a81548173ffffffffffffffffffffffffffffffffffffffff021916908373ffffffffffffffffffffffffffffffffffffffff160217905550600360008154809291906200011f906200022f565b9190505550506200027c565b600080fd5b600073ffffffffffffffffffffffffffffffffffffffff82169050919050565b60006200015d8262000130565b9050919050565b6200016f8162000150565b81146200017b57600080fd5b50565b6000815190506200018f8162000164565b92915050565b600060208284031215620001ae57620001ad6200012b565b5b6000620001be848285016200017e565b91505092915050565b7f4e487b7100000000000000000000000000000000000000000000000000000000600052600160045260246000fd5b7f4e487b7100000000000000000000000000000000000000000000000000000000600052601160045260246000fd5b6000819050919050565b60006200023c8262000225565b91507fffffffffffffffffffffffffffffffffffffffffffffffffffffffffffffffff8203620002715762000270620001f6565b5b600182019050919050565b610a45806200028c6000396000f3fe6080604052600436106100865760003560e01c80633fa4f245116100595780633fa4f2451461014957806355241077146101745780638da5cb5b1461019d57806391a99d2c146101c8578063c99de57e146101f357610086565b80630141307a1461008b57806307c538d0146100b65780630c4f65bd146100e1578063298ccd6c1461010c575b600080fd5b34801561009757600080fd5b506100a06101fd565b6040516100ad91906105f4565b60405180910390f35b3480156100c257600080fd5b506100cb610203565b6040516100d891906106ff565b60405180910390f35b3480156100ed57600080fd5b506100f66102fd565b6040516101039190610730565b60405180910390f35b34801561011857600080fd5b50610133600480360381019061012e919061077c565b610327565b6040516101409190610730565b60405180910390f35b34801561015557600080fd5b5061015e61035a565b60405161016b91906105f4565b60405180910390f35b34801561018057600080fd5b5061019b6004803603810190610196919061077c565b610360565b005b3480156101a957600080fd5b506101b26103fa565b6040516101bf91906107ca565b60405180910390f35b3480156101d457600080fd5b506101dd610420565b6040516101ea91906105f4565b60405180910390f35b6101fb61042a565b005b60035481565b6060600060035467ffffffffffffffff811115610223576102226107e5565b5b6040519080825280602002602001820160405280156102515781602001602082028036833780820191505090505b50905060005b6003548110156102f5576002600082815260200190815260200160002060009054906101000a900473ffffffffffffffffffffffffffffffffffffffff168282815181106102a8576102a7610814565b5b602002602001019073ffffffffffffffffffffffffffffffffffffffff16908173ffffffffffffffffffffffffffffffffffffffff168152505080806102ed90610872565b915050610257565b508091505090565b6000600160009054906101000a900473ffffffffffffffffffffffffffffffffffffffff16905090565b60026020528060005260406000206000915054906101000a900473ffffffffffffffffffffffffffffffffffffffff1681565b60005481565b3373ffffffffffffffffffffffffffffffffffffffff16600160009054906101000a900473ffffffffffffffffffffffffffffffffffffffff1673ffffffffffffffffffffffffffffffffffffffff16146103f0576040517f08c379a00000000000000000000000000000000000000000000000000000000081526004016103e790610917565b60405180910390fd5b8060008190555050565b600160009054906101000a900473ffffffffffffffffffffffffffffffffffffffff1681565b6000600354905090565b600054341461046e576040517f08c379a000000000000000000000000000000000000000000000000000000000815260040161046590610983565b60405180910390fd5b6000600160009054906101000a900473ffffffffffffffffffffffffffffffffffffffff1673ffffffffffffffffffffffffffffffffffffffff166108fc479081150290604051600060405180830381858888f19350505050905080610509576040517f08c379a0000000000000000000000000000000000000000000000000000000008152600401610500906109ef565b60405180910390fd5b33600160006101000a81548173ffffffffffffffffffffffffffffffffffffffff021916908373ffffffffffffffffffffffffffffffffffffffff160217905550600160009054906101000a900473ffffffffffffffffffffffffffffffffffffffff1660026000600354815260200190815260200160002060006101000a81548173ffffffffffffffffffffffffffffffffffffffff021916908373ffffffffffffffffffffffffffffffffffffffff160217905550600360008154809291906105d390610872565b919050555050565b6000819050919050565b6105ee816105db565b82525050565b600060208201905061060960008301846105e5565b92915050565b600081519050919050565b600082825260208201905092915050565b6000819050602082019050919050565b600073ffffffffffffffffffffffffffffffffffffffff82169050919050565b60006106668261063b565b9050919050565b6106768161065b565b82525050565b6000610688838361066d565b60208301905092915050565b6000602082019050919050565b60006106ac8261060f565b6106b6818561061a565b93506106c18361062b565b8060005b838110156106f25781516106d9888261067c565b97506106e483610694565b9250506001810190506106c5565b5085935050505092915050565b6000602082019050818103600083015261071981846106a1565b905092915050565b61072a8161065b565b82525050565b60006020820190506107456000830184610721565b92915050565b600080fd5b610759816105db565b811461076457600080fd5b50565b60008135905061077681610750565b92915050565b6000602082840312156107925761079161074b565b5b60006107a084828501610767565b91505092915050565b60006107b48261063b565b9050919050565b6107c4816107a9565b82525050565b60006020820190506107df60008301846107bb565b92915050565b7f4e487b7100000000000000000000000000000000000000000000000000000000600052604160045260246000fd5b7f4e487b7100000000000000000000000000000000000000000000000000000000600052603260045260246000fd5b7f4e487b7100000000000000000000000000000000000000000000000000000000600052601160045260246000fd5b600061087d826105db565b91507fffffffffffffffffffffffffffffffffffffffffffffffffffffffffffffffff82036108af576108ae610843565b5b600182019050919050565b600082825260208201905092915050565b7f4163636573732044656e69656400000000000000000000000000000000000000600082015250565b6000610901600d836108ba565b915061090c826108cb565b602082019050919050565b60006020820190508181036000830152610930816108f4565b9050919050565b7f496e76616c696400000000000000000000000000000000000000000000000000600082015250565b600061096d6007836108ba565b915061097882610937565b602082019050919050565b6000602082019050818103600083015261099c81610960565b9050919050565b7f496e76616c69642073656e740000000000000000000000000000000000000000600082015250565b60006109d9600c836108ba565b91506109e4826109a3565b602082019050919050565b60006020820190508181036000830152610a08816109cc565b905091905056fea2646970667358221220b01aba3a0aca9faa0f2598ff75981bf7ecfb414f2f094b7b5de736106205530b64736f6c63430008130033",
    "linkReferences": {},
    "deployedLinkReferences": {}
}